{
  "_format": "hh-sol-artifact-1",
  "contractName": "NFTMarketplace",
  "sourceName": "contracts/NFTMarketPlace.sol",
  "abi": [
    {
      "inputs": [],
      "stateMutability": "nonpayable",
      "type": "constructor"
    },
    {
      "anonymous": false,
      "inputs": [
        {
          "indexed": true,
          "internalType": "address",
          "name": "owner",
          "type": "address"
        },
        {
          "indexed": true,
          "internalType": "address",
          "name": "approved",
          "type": "address"
        },
        {
          "indexed": true,
          "internalType": "uint256",
          "name": "tokenId",
          "type": "uint256"
        }
      ],
      "name": "Approval",
      "type": "event"
    },
    {
      "anonymous": false,
      "inputs": [
        {
          "indexed": true,
          "internalType": "address",
          "name": "owner",
          "type": "address"
        },
        {
          "indexed": true,
          "internalType": "address",
          "name": "operator",
          "type": "address"
        },
        {
          "indexed": false,
          "internalType": "bool",
          "name": "approved",
          "type": "bool"
        }
      ],
      "name": "ApprovalForAll",
      "type": "event"
    },
    {
      "anonymous": false,
      "inputs": [
        {
          "indexed": true,
          "internalType": "uint256",
          "name": "tokenId",
          "type": "uint256"
        },
        {
          "indexed": false,
          "internalType": "address",
          "name": "seller",
          "type": "address"
        },
        {
          "indexed": false,
          "internalType": "address",
          "name": "owner",
          "type": "address"
        },
        {
          "indexed": false,
          "internalType": "uint256",
          "name": "price",
          "type": "uint256"
        },
        {
          "indexed": false,
          "internalType": "bool",
          "name": "sold",
          "type": "bool"
        }
      ],
      "name": "MarketItemCreated",
      "type": "event"
    },
    {
      "anonymous": false,
      "inputs": [
        {
          "indexed": true,
          "internalType": "address",
          "name": "from",
          "type": "address"
        },
        {
          "indexed": true,
          "internalType": "address",
          "name": "to",
          "type": "address"
        },
        {
          "indexed": true,
          "internalType": "uint256",
          "name": "tokenId",
          "type": "uint256"
        }
      ],
      "name": "Transfer",
      "type": "event"
    },
    {
      "inputs": [
        {
          "internalType": "uint256",
          "name": "tokenId",
          "type": "uint256"
        }
      ],
      "name": "CreateMarketSale",
      "outputs": [],
      "stateMutability": "payable",
      "type": "function"
    },
    {
      "inputs": [
        {
          "internalType": "string",
          "name": "tokenURI",
          "type": "string"
        },
        {
          "internalType": "uint256",
          "name": "price",
          "type": "uint256"
        }
      ],
      "name": "CreateToken",
      "outputs": [
        {
          "internalType": "uint256",
          "name": "",
          "type": "uint256"
        }
      ],
      "stateMutability": "payable",
      "type": "function"
    },
    {
      "inputs": [
        {
          "internalType": "address",
          "name": "to",
          "type": "address"
        },
        {
          "internalType": "uint256",
          "name": "tokenId",
          "type": "uint256"
        }
      ],
      "name": "approve",
      "outputs": [],
      "stateMutability": "nonpayable",
      "type": "function"
    },
    {
      "inputs": [
        {
          "internalType": "address",
          "name": "owner",
          "type": "address"
        }
      ],
      "name": "balanceOf",
      "outputs": [
        {
          "internalType": "uint256",
          "name": "",
          "type": "uint256"
        }
      ],
      "stateMutability": "view",
      "type": "function"
    },
    {
      "inputs": [],
      "name": "fetchItemsListed",
      "outputs": [
        {
          "components": [
            {
              "internalType": "uint256",
              "name": "tokenId",
              "type": "uint256"
            },
            {
              "internalType": "address payable",
              "name": "seller",
              "type": "address"
            },
            {
              "internalType": "address payable",
              "name": "owner",
              "type": "address"
            },
            {
              "internalType": "uint256",
              "name": "price",
              "type": "uint256"
            },
            {
              "internalType": "bool",
              "name": "sold",
              "type": "bool"
            }
          ],
          "internalType": "struct NFTMarketplace.MarketItem[]",
          "name": "",
          "type": "tuple[]"
        }
      ],
      "stateMutability": "view",
      "type": "function"
    },
    {
      "inputs": [],
      "name": "fetchMarketItems",
      "outputs": [
        {
          "components": [
            {
              "internalType": "uint256",
              "name": "tokenId",
              "type": "uint256"
            },
            {
              "internalType": "address payable",
              "name": "seller",
              "type": "address"
            },
            {
              "internalType": "address payable",
              "name": "owner",
              "type": "address"
            },
            {
              "internalType": "uint256",
              "name": "price",
              "type": "uint256"
            },
            {
              "internalType": "bool",
              "name": "sold",
              "type": "bool"
            }
          ],
          "internalType": "struct NFTMarketplace.MarketItem[]",
          "name": "",
          "type": "tuple[]"
        }
      ],
      "stateMutability": "view",
      "type": "function"
    },
    {
      "inputs": [],
      "name": "fetchMyNFTs",
      "outputs": [
        {
          "components": [
            {
              "internalType": "uint256",
              "name": "tokenId",
              "type": "uint256"
            },
            {
              "internalType": "address payable",
              "name": "seller",
              "type": "address"
            },
            {
              "internalType": "address payable",
              "name": "owner",
              "type": "address"
            },
            {
              "internalType": "uint256",
              "name": "price",
              "type": "uint256"
            },
            {
              "internalType": "bool",
              "name": "sold",
              "type": "bool"
            }
          ],
          "internalType": "struct NFTMarketplace.MarketItem[]",
          "name": "",
          "type": "tuple[]"
        }
      ],
      "stateMutability": "view",
      "type": "function"
    },
    {
      "inputs": [
        {
          "internalType": "uint256",
          "name": "tokenId",
          "type": "uint256"
        }
      ],
      "name": "getApproved",
      "outputs": [
        {
          "internalType": "address",
          "name": "",
          "type": "address"
        }
      ],
      "stateMutability": "view",
      "type": "function"
    },
    {
      "inputs": [],
      "name": "getListingPrice",
      "outputs": [
        {
          "internalType": "uint256",
          "name": "",
          "type": "uint256"
        }
      ],
      "stateMutability": "view",
      "type": "function"
    },
    {
      "inputs": [
        {
          "internalType": "address",
          "name": "owner",
          "type": "address"
        },
        {
          "internalType": "address",
          "name": "operator",
          "type": "address"
        }
      ],
      "name": "isApprovedForAll",
      "outputs": [
        {
          "internalType": "bool",
          "name": "",
          "type": "bool"
        }
      ],
      "stateMutability": "view",
      "type": "function"
    },
    {
      "inputs": [],
      "name": "name",
      "outputs": [
        {
          "internalType": "string",
          "name": "",
          "type": "string"
        }
      ],
      "stateMutability": "view",
      "type": "function"
    },
    {
      "inputs": [
        {
          "internalType": "uint256",
          "name": "tokenId",
          "type": "uint256"
        }
      ],
      "name": "ownerOf",
      "outputs": [
        {
          "internalType": "address",
          "name": "",
          "type": "address"
        }
      ],
      "stateMutability": "view",
      "type": "function"
    },
    {
      "inputs": [
        {
          "internalType": "uint256",
          "name": "tokenId",
          "type": "uint256"
        },
        {
          "internalType": "uint256",
          "name": "price",
          "type": "uint256"
        }
      ],
      "name": "resellToken",
      "outputs": [],
      "stateMutability": "payable",
      "type": "function"
    },
    {
      "inputs": [
        {
          "internalType": "address",
          "name": "from",
          "type": "address"
        },
        {
          "internalType": "address",
          "name": "to",
          "type": "address"
        },
        {
          "internalType": "uint256",
          "name": "tokenId",
          "type": "uint256"
        }
      ],
      "name": "safeTransferFrom",
      "outputs": [],
      "stateMutability": "nonpayable",
      "type": "function"
    },
    {
      "inputs": [
        {
          "internalType": "address",
          "name": "from",
          "type": "address"
        },
        {
          "internalType": "address",
          "name": "to",
          "type": "address"
        },
        {
          "internalType": "uint256",
          "name": "tokenId",
          "type": "uint256"
        },
        {
          "internalType": "bytes",
          "name": "data",
          "type": "bytes"
        }
      ],
      "name": "safeTransferFrom",
      "outputs": [],
      "stateMutability": "nonpayable",
      "type": "function"
    },
    {
      "inputs": [
        {
          "internalType": "address",
          "name": "operator",
          "type": "address"
        },
        {
          "internalType": "bool",
          "name": "approved",
          "type": "bool"
        }
      ],
      "name": "setApprovalForAll",
      "outputs": [],
      "stateMutability": "nonpayable",
      "type": "function"
    },
    {
      "inputs": [
        {
          "internalType": "bytes4",
          "name": "interfaceId",
          "type": "bytes4"
        }
      ],
      "name": "supportsInterface",
      "outputs": [
        {
          "internalType": "bool",
          "name": "",
          "type": "bool"
        }
      ],
      "stateMutability": "view",
      "type": "function"
    },
    {
      "inputs": [],
      "name": "symbol",
      "outputs": [
        {
          "internalType": "string",
          "name": "",
          "type": "string"
        }
      ],
      "stateMutability": "view",
      "type": "function"
    },
    {
      "inputs": [
        {
          "internalType": "uint256",
          "name": "tokenId",
          "type": "uint256"
        }
      ],
      "name": "tokenURI",
      "outputs": [
        {
          "internalType": "string",
          "name": "",
          "type": "string"
        }
      ],
      "stateMutability": "view",
      "type": "function"
    },
    {
      "inputs": [
        {
          "internalType": "address",
          "name": "from",
          "type": "address"
        },
        {
          "internalType": "address",
          "name": "to",
          "type": "address"
        },
        {
          "internalType": "uint256",
          "name": "tokenId",
          "type": "uint256"
        }
      ],
      "name": "transferFrom",
      "outputs": [],
      "stateMutability": "nonpayable",
      "type": "function"
    },
    {
      "inputs": [
        {
          "internalType": "uint256",
          "name": "_listingPrice",
          "type": "uint256"
        }
      ],
      "name": "updateListingPrice",
      "outputs": [],
      "stateMutability": "payable",
      "type": "function"
    }
  ],
  "bytecode": "0x608060405266038d7ea4c680006009553480156200001c57600080fd5b5060408051808201825260088152674b4c546f6b656e7360c01b60208083019182528351808501909452600384526212d31560ea1b908401528151919291620000689160009162000099565b5080516200007e90600190602084019062000099565b5050600a80546001600160a01b03191633179055506200017c565b828054620000a7906200013f565b90600052602060002090601f016020900481019282620000cb576000855562000116565b82601f10620000e657805160ff191683800117855562000116565b8280016001018555821562000116579182015b8281111562000116578251825591602001919060010190620000f9565b506200012492915062000128565b5090565b5b8082111562000124576000815560010162000129565b600181811c908216806200015457607f821691505b602082108114156200017657634e487b7160e01b600052602260045260246000fd5b50919050565b612210806200018c6000396000f3fe60806040526004361061012a5760003560e01c80636352211e116100ab578063ae677aa31161006f578063ae677aa314610313578063b88d4fde14610326578063c87b56dd14610346578063dac2fcba14610366578063e219fc7514610379578063e985e9c51461038c57600080fd5b80636352211e1461028b57806370a08231146102ab5780638284fe29146102cb57806395d89b41146102de578063a22cb465146102f357600080fd5b806312e85585116100f257806312e8558514610202578063202e37401461022157806323b872dd1461023657806342842e0e1461025657806345f8fa801461027657600080fd5b806301ffc9a71461012f57806306fdde0314610164578063081812fc14610186578063095ea7b3146101be5780630f08efe0146101e0575b600080fd5b34801561013b57600080fd5b5061014f61014a366004611e1b565b6103d5565b60405190151581526020015b60405180910390f35b34801561017057600080fd5b50610179610427565b60405161015b9190611ff6565b34801561019257600080fd5b506101a66101a1366004611ea9565b6104b9565b6040516001600160a01b03909116815260200161015b565b3480156101ca57600080fd5b506101de6101d9366004611df2565b6104e0565b005b3480156101ec57600080fd5b506101f56105fb565b60405161015b9190611f7a565b34801561020e57600080fd5b506009545b60405190815260200161015b565b34801561022d57600080fd5b506101f56107af565b34801561024257600080fd5b506101de610251366004611d04565b6109a1565b34801561026257600080fd5b506101de610271366004611d04565b6109d2565b34801561028257600080fd5b506101f56109ed565b34801561029757600080fd5b506101a66102a6366004611ea9565b610bdf565b3480156102b757600080fd5b506102136102c6366004611cb8565b610c3f565b6102136102d9366004611e53565b610cc5565b3480156102ea57600080fd5b50610179610d07565b3480156102ff57600080fd5b506101de61030e366004611db8565b610d16565b6101de610321366004611ea9565b610d25565b34801561033257600080fd5b506101de610341366004611d3f565b610d7c565b34801561035257600080fd5b50610179610361366004611ea9565b610db4565b6101de610374366004611ea9565b610ec5565b6101de610387366004611ec1565b611021565b34801561039857600080fd5b5061014f6103a7366004611cd2565b6001600160a01b03918216600090815260056020908152604080832093909416825291909152205460ff1690565b60006001600160e01b031982166380ac58cd60e01b148061040657506001600160e01b03198216635b5e139f60e01b145b8061042157506301ffc9a760e01b6001600160e01b03198316145b92915050565b60606000805461043690612118565b80601f016020809104026020016040519081016040528092919081815260200182805461046290612118565b80156104af5780601f10610484576101008083540402835291602001916104af565b820191906000526020600020905b81548152906001019060200180831161049257829003601f168201915b5050505050905090565b60006104c482611142565b506000908152600460205260409020546001600160a01b031690565b60006104eb82610bdf565b9050806001600160a01b0316836001600160a01b0316141561055e5760405162461bcd60e51b815260206004820152602160248201527f4552433732313a20617070726f76616c20746f2063757272656e74206f776e656044820152603960f91b60648201526084015b60405180910390fd5b336001600160a01b038216148061057a575061057a81336103a7565b6105ec5760405162461bcd60e51b815260206004820152603e60248201527f4552433732313a20617070726f76652063616c6c6572206973206e6f7420746f60448201527f6b656e206f776e6572206e6f7220617070726f76656420666f7220616c6c00006064820152608401610555565b6105f683836111a4565b505050565b6060600061060860075490565b9050600061061560085490565b60075461062291906120d5565b90506000808267ffffffffffffffff81111561064e57634e487b7160e01b600052604160045260246000fd5b6040519080825280602002602001820160405280156106a757816020015b6040805160a08101825260008082526020808301829052928201819052606082018190526080820152825260001990920191018161066c5790505b50905060005b848110156107a65730600b60006106c58460016120a9565b81526020810191909152604001600020600201546001600160a01b031614156107945760006106f58260016120a9565b6000818152600b6020908152604091829020825160a0810184528154815260018201546001600160a01b039081169382019390935260028201549092169282019290925260038201546060820152600482015460ff16151560808201528551929350909185908790811061077957634e487b7160e01b600052603260045260246000fd5b602090810291909101015261078f6001866120a9565b945050505b8061079e81612153565b9150506106ad565b50949350505050565b606060006107bc60075490565b905060008060005b8381101561081f5733600b60006107dc8460016120a9565b81526020810191909152604001600020600201546001600160a01b0316141561080d5761080a6001846120a9565b92505b8061081781612153565b9150506107c4565b5060008267ffffffffffffffff81111561084957634e487b7160e01b600052604160045260246000fd5b6040519080825280602002602001820160405280156108a257816020015b6040805160a0810182526000808252602080830182905292820181905260608201819052608082015282526000199092019101816108675790505b50905060005b848110156107a65733600b60006108c08460016120a9565b81526020810191909152604001600020600201546001600160a01b0316141561098f5760006108f08260016120a9565b6000818152600b6020908152604091829020825160a0810184528154815260018201546001600160a01b039081169382019390935260028201549092169282019290925260038201546060820152600482015460ff16151560808201528551929350909185908790811061097457634e487b7160e01b600052603260045260246000fd5b602090810291909101015261098a6001866120a9565b945050505b8061099981612153565b9150506108a8565b6109ab3382611212565b6109c75760405162461bcd60e51b81526004016105559061205b565b6105f6838383611290565b6105f683838360405180602001604052806000815250610d7c565b606060006109fa60075490565b905060008060005b83811015610a5d5733600b6000610a1a8460016120a9565b81526020810191909152604001600020600101546001600160a01b03161415610a4b57610a486001846120a9565b92505b80610a5581612153565b915050610a02565b5060008267ffffffffffffffff811115610a8757634e487b7160e01b600052604160045260246000fd5b604051908082528060200260200182016040528015610ae057816020015b6040805160a081018252600080825260208083018290529282018190526060820181905260808201528252600019909201910181610aa55790505b50905060005b848110156107a65733600b6000610afe8460016120a9565b81526020810191909152604001600020600101546001600160a01b03161415610bcd576000610b2e8260016120a9565b6000818152600b6020908152604091829020825160a0810184528154815260018201546001600160a01b039081169382019390935260028201549092169282019290925260038201546060820152600482015460ff161515608082015285519293509091859087908110610bb257634e487b7160e01b600052603260045260246000fd5b6020908102919091010152610bc86001866120a9565b945050505b80610bd781612153565b915050610ae6565b6000818152600260205260408120546001600160a01b0316806104215760405162461bcd60e51b8152602060048201526018602482015277115490cdcc8c4e881a5b9d985b1a59081d1bdad95b88125160421b6044820152606401610555565b60006001600160a01b038216610ca95760405162461bcd60e51b815260206004820152602960248201527f4552433732313a2061646472657373207a65726f206973206e6f7420612076616044820152683634b21037bbb732b960b91b6064820152608401610555565b506001600160a01b031660009081526003602052604090205490565b6000610cd5600780546001019055565b6000610ce060075490565b9050610cec338261142c565b610cf6818561156e565b610d008184611608565b9392505050565b60606001805461043690612118565b610d2133838361179a565b5050565b600a546001600160a01b03163314610d775760405162461bcd60e51b81526020600482015260156024820152746f6e6c79206f776e65722063616e2075706461746560581b6044820152606401610555565b600955565b610d863383611212565b610da25760405162461bcd60e51b81526004016105559061205b565b610dae84848484611869565b50505050565b6060610dbf82611142565b60008281526006602052604081208054610dd890612118565b80601f0160208091040260200160405190810160405280929190818152602001828054610e0490612118565b8015610e515780601f10610e2657610100808354040283529160200191610e51565b820191906000526020600020905b815481529060010190602001808311610e3457829003601f168201915b505050505090506000610e6f60408051602081019091526000815290565b9050805160001415610e82575092915050565b815115610eb4578082604051602001610e9c929190611f0e565b60405160208183030381529060405292505050919050565b610ebd8461189c565b949350505050565b6000818152600b6020526040902060038101546001909101546001600160a01b0316348214610f555760405162461bcd60e51b815260206004820152603660248201527f706179207468652061736b696e6720707269636520696e206f7264657220746f60448201527520636f6d706c6574652074686520707572636861736560501b6064820152608401610555565b6000838152600b602052604090206002810180546001600160a01b0319908116331790915560048201805460ff1916600190811790915590910180549091169055610fa4600880546001019055565b610faf303385611290565b600a546009546040516001600160a01b039092169181156108fc0291906000818181858888f19350505050158015610feb573d6000803e3d6000fd5b506040516001600160a01b038216903480156108fc02916000818181858888f19350505050158015610dae573d6000803e3d6000fd5b6000828152600b60205260409020600201546001600160a01b0316331461108a5760405162461bcd60e51b815260206004820152601a60248201527f6f6e6c79206974656d206f776e65722063616e20726573656c6c0000000000006044820152606401610555565b60095434146110e75760405162461bcd60e51b8152602060048201526024808201527f5072696365206d75737420626520657175616c20746f206c697374696e6720706044820152637269636560e01b6064820152608401610555565b6000828152600b6020526040902060048101805460ff19169055600381018290556001810180546001600160a01b031990811633179091556002909101805490911630179055611137600861190f565b610d21333084611290565b6000818152600260205260409020546001600160a01b03166111a15760405162461bcd60e51b8152602060048201526018602482015277115490cdcc8c4e881a5b9d985b1a59081d1bdad95b88125160421b6044820152606401610555565b50565b600081815260046020526040902080546001600160a01b0319166001600160a01b03841690811790915581906111d982610bdf565b6001600160a01b03167f8c5be1e5ebec7d5bd14f71427d1e84f3dd0314c0f7b2291e5b200ac8c7c3b92560405160405180910390a45050565b60008061121e83610bdf565b9050806001600160a01b0316846001600160a01b0316148061126557506001600160a01b0380821660009081526005602090815260408083209388168352929052205460ff165b80610ebd5750836001600160a01b031661127e846104b9565b6001600160a01b031614949350505050565b826001600160a01b03166112a382610bdf565b6001600160a01b0316146113075760405162461bcd60e51b815260206004820152602560248201527f4552433732313a207472616e736665722066726f6d20696e636f72726563742060448201526437bbb732b960d91b6064820152608401610555565b6001600160a01b0382166113695760405162461bcd60e51b8152602060048201526024808201527f4552433732313a207472616e7366657220746f20746865207a65726f206164646044820152637265737360e01b6064820152608401610555565b6113746000826111a4565b6001600160a01b038316600090815260036020526040812080546001929061139d9084906120d5565b90915550506001600160a01b03821660009081526003602052604081208054600192906113cb9084906120a9565b909155505060008181526002602052604080822080546001600160a01b0319166001600160a01b0386811691821790925591518493918716917fddf252ad1be2c89b69c2b068fc378daa952ba7f163c4a11628f55a4df523b3ef91a4505050565b6001600160a01b0382166114825760405162461bcd60e51b815260206004820181905260248201527f4552433732313a206d696e7420746f20746865207a65726f20616464726573736044820152606401610555565b6000818152600260205260409020546001600160a01b0316156114e75760405162461bcd60e51b815260206004820152601c60248201527f4552433732313a20746f6b656e20616c7265616479206d696e746564000000006044820152606401610555565b6001600160a01b03821660009081526003602052604081208054600192906115109084906120a9565b909155505060008181526002602052604080822080546001600160a01b0319166001600160a01b03861690811790915590518392907fddf252ad1be2c89b69c2b068fc378daa952ba7f163c4a11628f55a4df523b3ef908290a45050565b6000828152600260205260409020546001600160a01b03166115e95760405162461bcd60e51b815260206004820152602e60248201527f45524337323155524953746f726167653a2055524920736574206f66206e6f6e60448201526d32bc34b9ba32b73a103a37b5b2b760911b6064820152608401610555565b600082815260066020908152604090912082516105f692840190611b8d565b600081116116585760405162461bcd60e51b815260206004820152601d60248201527f7072696365206d757374206265206772656174686572207468616e20300000006044820152606401610555565b60095434146116b55760405162461bcd60e51b8152602060048201526024808201527f7072696365206d75737420626520657175616c20746f206c697374696e6720706044820152637269636560e01b6064820152608401610555565b6040805160a08101825283815233602080830182815230848601818152606086018881526000608088018181528b8252600b909652979097209551865591516001860180546001600160a01b03199081166001600160a01b0393841617909155925160028701805490941691161790915593516003840155516004909201805460ff19169215159290921790915561174d9184611290565b604080513381523060208201529081018290526000606082015282907fb640004f1d14576d0c209e240cad0410e0d8c0c33a09375861fbadae2588a98d9060800160405180910390a25050565b816001600160a01b0316836001600160a01b031614156117fc5760405162461bcd60e51b815260206004820152601960248201527f4552433732313a20617070726f766520746f2063616c6c6572000000000000006044820152606401610555565b6001600160a01b03838116600081815260056020908152604080832094871680845294825291829020805460ff191686151590811790915591519182527f17307eab39ab6107e8899845ad3d59bd9653f200f220920489ca2b5937696c31910160405180910390a3505050565b611874848484611290565b61188084848484611966565b610dae5760405162461bcd60e51b815260040161055590612009565b60606118a782611142565b60006118be60408051602081019091526000815290565b905060008151116118de5760405180602001604052806000815250610d00565b806118e884611a73565b6040516020016118f9929190611f0e565b6040516020818303038152906040529392505050565b80548061195e5760405162461bcd60e51b815260206004820152601b60248201527f436f756e7465723a2064656372656d656e74206f766572666c6f7700000000006044820152606401610555565b600019019055565b60006001600160a01b0384163b15611a6857604051630a85bd0160e11b81526001600160a01b0385169063150b7a02906119aa903390899088908890600401611f3d565b602060405180830381600087803b1580156119c457600080fd5b505af19250505080156119f4575060408051601f3d908101601f191682019092526119f191810190611e37565b60015b611a4e573d808015611a22576040519150601f19603f3d011682016040523d82523d6000602084013e611a27565b606091505b508051611a465760405162461bcd60e51b815260040161055590612009565b805181602001fd5b6001600160e01b031916630a85bd0160e11b149050610ebd565b506001949350505050565b606081611a975750506040805180820190915260018152600360fc1b602082015290565b8160005b8115611ac15780611aab81612153565b9150611aba9050600a836120c1565b9150611a9b565b60008167ffffffffffffffff811115611aea57634e487b7160e01b600052604160045260246000fd5b6040519080825280601f01601f191660200182016040528015611b14576020820181803683370190505b5090505b8415610ebd57611b296001836120d5565b9150611b36600a8661216e565b611b419060306120a9565b60f81b818381518110611b6457634e487b7160e01b600052603260045260246000fd5b60200101906001600160f81b031916908160001a905350611b86600a866120c1565b9450611b18565b828054611b9990612118565b90600052602060002090601f016020900481019282611bbb5760008555611c01565b82601f10611bd457805160ff1916838001178555611c01565b82800160010185558215611c01579182015b82811115611c01578251825591602001919060010190611be6565b50611c0d929150611c11565b5090565b5b80821115611c0d5760008155600101611c12565b600067ffffffffffffffff80841115611c4157611c416121ae565b604051601f8501601f19908116603f01168101908282118183101715611c6957611c696121ae565b81604052809350858152868686011115611c8257600080fd5b858560208301376000602087830101525050509392505050565b80356001600160a01b0381168114611cb357600080fd5b919050565b600060208284031215611cc9578081fd5b610d0082611c9c565b60008060408385031215611ce4578081fd5b611ced83611c9c565b9150611cfb60208401611c9c565b90509250929050565b600080600060608486031215611d18578081fd5b611d2184611c9c565b9250611d2f60208501611c9c565b9150604084013590509250925092565b60008060008060808587031215611d54578081fd5b611d5d85611c9c565b9350611d6b60208601611c9c565b925060408501359150606085013567ffffffffffffffff811115611d8d578182fd5b8501601f81018713611d9d578182fd5b611dac87823560208401611c26565b91505092959194509250565b60008060408385031215611dca578182fd5b611dd383611c9c565b915060208301358015158114611de7578182fd5b809150509250929050565b60008060408385031215611e04578182fd5b611e0d83611c9c565b946020939093013593505050565b600060208284031215611e2c578081fd5b8135610d00816121c4565b600060208284031215611e48578081fd5b8151610d00816121c4565b60008060408385031215611e65578182fd5b823567ffffffffffffffff811115611e7b578283fd5b8301601f81018513611e8b578283fd5b611e9a85823560208401611c26565b95602094909401359450505050565b600060208284031215611eba578081fd5b5035919050565b60008060408385031215611ed3578182fd5b50508035926020909101359150565b60008151808452611efa8160208601602086016120ec565b601f01601f19169290920160200192915050565b60008351611f208184602088016120ec565b835190830190611f348183602088016120ec565b01949350505050565b6001600160a01b0385811682528416602082015260408101839052608060608201819052600090611f7090830184611ee2565b9695505050505050565b602080825282518282018190526000919060409081850190868401855b82811015611fe957815180518552868101516001600160a01b03908116888701528682015116868601526060808201519086015260809081015115159085015260a09093019290850190600101611f97565b5091979650505050505050565b602081526000610d006020830184611ee2565b60208082526032908201527f4552433732313a207472616e7366657220746f206e6f6e20455243373231526560408201527131b2b4bb32b91034b6b83632b6b2b73a32b960711b606082015260800190565b6020808252602e908201527f4552433732313a2063616c6c6572206973206e6f7420746f6b656e206f776e6560408201526d1c881b9bdc88185c1c1c9bdd995960921b606082015260800190565b600082198211156120bc576120bc612182565b500190565b6000826120d0576120d0612198565b500490565b6000828210156120e7576120e7612182565b500390565b60005b838110156121075781810151838201526020016120ef565b83811115610dae5750506000910152565b600181811c9082168061212c57607f821691505b6020821081141561214d57634e487b7160e01b600052602260045260246000fd5b50919050565b600060001982141561216757612167612182565b5060010190565b60008261217d5761217d612198565b500690565b634e487b7160e01b600052601160045260246000fd5b634e487b7160e01b600052601260045260246000fd5b634e487b7160e01b600052604160045260246000fd5b6001600160e01b0319811681146111a157600080fdfea26469706673582212204d8aa9432152cc44e25193351ad2d124dba1a4e740ecddff8053debb47a95f9364736f6c63430008040033",
  "linkReferences": {},
  "deployedLinkReferences": {}
}